:020000040000FA
:04000000E2EF03F038
:1006000000436F727920572E20486F646765004C55
:0B0610004344204D6F64756C650000D2
:10061C00000EBCEC03F01A0E046EF80EE82EFED79A
:10062C00042EFCD700D0030ED2EC03F00D0E046E9A
:10063C00FC0EE82EFED7042EFCD7030ED2EC03F0F2
:10064C001A0E046EF80EE82EFED7042EFCD700D03E
:10065C00030ED2EC03F0020ED2EC03F0020ED2EC3D
:10066C0003F0080ED2EC03F0000ED2EC03F00C0EEB
:10067C00D2EC03F0000ED2EC03F0060ED2EC03F039
:10068C001200000E0A6E000E096E10D009500524DF
:10069C00076E0A500620086E07C0F6FF08C0F7FF69
:1006AC000800F55089EC03F0094A0A2A0950052480
:1006BC00076E0A500620086E07C0F6FF08C0F7FF49
:1006CC000800F5500009D8B41200E0D7000E956E62
:1006DC000EEC03F0E9EC03F0010E046E010EA5EC38
:1006EC0003F00F0E056E060E066E47EC03F0010EBE
:1006FC00046E020EA5EC03F0010E056E060E066EDE
:10070C0047EC03F0FFD7046E0450F00B026E04505C
:10071C000F0B036E838202380F0BBCEC03F083804B
:10072C001A0EE82EFED700D083900350BCEC03F0D9
:10073C0083801A0EE82EFED700D083901200056E2F
:10074C000504D8A403D004507F0F02D00450BF0F6F
:10075C00086E08380F0B066E08500F0B076E06500C
:10076C00D2EC03F00750D2EC03F01200016E01A0A2
:10077C0002D0838401D0839401A202D0838601D05D
:10078C00839601A402D0838801D0839801A602D05D
:10079C00838A1200839A1200036E83920350BCEC7E
:1007AC0003F083800B0E026E620EE82EFED7022E33
:1007BC00FCD700D083901200000EF86E060EF76E78
:1007CC0000016CEF03F0000ED2EC03F0010ED2EC42
:0407DC0003F0120014
:020000040020DA
:08000000FFFFFFFFFFFFFFFF00
:020000040030CA
:0E000000FF091F1EFF8381FF0FC00FE00F409E
:00000001FF
