:020000040000FA
:0400000001EF3FF0DD
:107E0200000EF86E0001AAEF3FF0C280C08EC0845F
:107E1200C092C0901200C282C2B2FED7C4500B6E92
:107E22000A6AC3500A240C6E000E0B200D6E0CC0A1
:107E320001F00DC002F0000E046E640E036E2BEC16
:107E42003FF001C00CF002C00DF00CC008F00DC0F4
:107E520009F01200000E066E000E056E03500410AB
:107E6200D8B41CD0010E076E04D0D8900336043665
:107E7200072A04AEFAD7D890053606360350015CBD
:107E820004500258D8A005D00350015E0450025A93
:107E92000580D89004320332072EEDD705C001F0D9
:107EA20006C002F01200010EC21622D0C250120009
:107EB200C2841200C28612000C0EC2121200C288C4
:107EC2001200140EC2121200180EC21212001C0E60
:107ED200C2121200C28A1200240EC2121200280E0E
:107EE200C21212002C0EC2121200300EC212120066
:107EF20001C003F002C004F00450000AD8A412002A
:107F02000350000AD8B4D2D7010AD8B4D1D7030A91
:107F1200D8B4D0D7010AD8B4CFD7070AD8B4CFD7AC
:107F2200010AD8B4CED7030AD8B4CED7010AD8B43E
:107F3200CED70F0AD8B4CED7010AD8B4CDD7030A08
:107F4200D8B4CDD7010AD8B4CDD7070AD8A4120025
:107F5200CCD7000E956E000E8C6E926806EC3FF048
:107F6200000E026E000E016E54EC3FF0000E116E18
:107F7200000E106E000E0F6E000E0E6EE80E101840
:107F82003BE1030E1118D8A437D00CEC3FF008C027
:107F920012F009C013F013BE05D0135005E112040C
:107FA200D8B002D08C8001D08C9013BE08D0135070
:107FB20004E1020E125CD8A002D08C8201D08C9215
:107FC20013BE08D0135004E1080E125CD8A002D0F0
:107FD2008C8401D08C9413BE08D0135004E1090E96
:107FE200125CD8A002D08C8601D08C96000E116E45
:0E7FF200000E106E0E4A0F2A104A112ABFD739
:020000040020DA
:08000000FFFFFFFFFFFFFFFF00
:020000040030CA
:0E000000FF091F1EFF8381FF0FC00FE00F409E
:00000001FF
